{
  "abi": [
    {
      "inputs": [
        {
          "internalType": "uint8",
          "name": "_maxWhitelistedAddresses",
          "type": "uint8"
        },
        {
          "internalType": "uint256",
          "name": "_feeAmount",
          "type": "uint256"
        },
        {
          "internalType": "uint256",
          "name": "_interval",
          "type": "uint256"
        }
      ],
      "stateMutability": "nonpayable",
      "type": "constructor"
    },
    {
      "anonymous": false,
      "inputs": [
        {
          "indexed": true,
          "internalType": "address",
          "name": "_user",
          "type": "address"
        },
        {
          "indexed": false,
          "internalType": "uint8",
          "name": "_numAddressesWhitelisted",
          "type": "uint8"
        }
      ],
      "name": "Added",
      "type": "event"
    },
    {
      "anonymous": false,
      "inputs": [
        {
          "indexed": true,
          "internalType": "address",
          "name": "_user",
          "type": "address"
        },
        {
          "indexed": false,
          "internalType": "uint8",
          "name": "_numAddressesWhitelisted",
          "type": "uint8"
        }
      ],
      "name": "PaidAdded",
      "type": "event"
    },
    {
      "inputs": [],
      "name": "addAddressToWhitelist",
      "outputs": [],
      "stateMutability": "payable",
      "type": "function"
    },
    {
      "inputs": [
        {
          "internalType": "bytes",
          "name": "",
          "type": "bytes"
        }
      ],
      "name": "checkUpkeep",
      "outputs": [
        {
          "internalType": "bool",
          "name": "upkeepNeeded",
          "type": "bool"
        },
        {
          "internalType": "bytes",
          "name": "",
          "type": "bytes"
        }
      ],
      "stateMutability": "nonpayable",
      "type": "function"
    },
    {
      "inputs": [],
      "name": "feeAccount",
      "outputs": [
        {
          "internalType": "address payable",
          "name": "",
          "type": "address"
        }
      ],
      "stateMutability": "view",
      "type": "function"
    },
    {
      "inputs": [],
      "name": "feeAmount",
      "outputs": [
        {
          "internalType": "uint256",
          "name": "",
          "type": "uint256"
        }
      ],
      "stateMutability": "view",
      "type": "function"
    },
    {
      "inputs": [],
      "name": "maxWhitelistedAddresses",
      "outputs": [
        {
          "internalType": "uint8",
          "name": "",
          "type": "uint8"
        }
      ],
      "stateMutability": "view",
      "type": "function"
    },
    {
      "inputs": [],
      "name": "numAddressesWhitelisted",
      "outputs": [
        {
          "internalType": "uint8",
          "name": "",
          "type": "uint8"
        }
      ],
      "stateMutability": "view",
      "type": "function"
    },
    {
      "inputs": [
        {
          "internalType": "bytes",
          "name": "",
          "type": "bytes"
        }
      ],
      "name": "performUpkeep",
      "outputs": [],
      "stateMutability": "nonpayable",
      "type": "function"
    },
    {
      "inputs": [
        {
          "internalType": "address",
          "name": "",
          "type": "address"
        }
      ],
      "name": "whitelistedAddresses",
      "outputs": [
        {
          "internalType": "bool",
          "name": "",
          "type": "bool"
        }
      ],
      "stateMutability": "view",
      "type": "function"
    }
  ],
  "bytecode": "60a060405234801561001057600080fd5b5060405161068138038061068183398101604081905261002f91610057565b6000805460ff191660ff94909416939093179092556001554260025533608052600355610094565b60008060006060848603121561006c57600080fd5b835160ff8116811461007d57600080fd5b602085015160409095015190969495509392505050565b6080516105cb6100b660003960008181610144015261029301526105cb6000f3fe60806040526004361061007b5760003560e01c806365e17c9d1161004e57806365e17c9d1461013257806369e154041461017e5780636e04ff0d146101a25780638e7314d9146101d057600080fd5b806306c933d81461008057806331a72188146100c55780634011d7cd146100f15780634585e33b14610110575b600080fd5b34801561008c57600080fd5b506100b061009b36600461043a565b60046020526000908152604090205460ff1681565b60405190151581526020015b60405180910390f35b3480156100d157600080fd5b506000546100df9060ff1681565b60405160ff90911681526020016100bc565b3480156100fd57600080fd5b506000546100df90610100900460ff1681565b34801561011c57600080fd5b5061013061012b36600461046a565b6101d8565b005b34801561013e57600080fd5b506101667f000000000000000000000000000000000000000000000000000000000000000081565b6040516001600160a01b0390911681526020016100bc565b34801561018a57600080fd5b5061019460015481565b6040519081526020016100bc565b3480156101ae57600080fd5b506101c26101bd36600461046a565b61020f565b6040516100bc9291906104dc565b61013061022e565b6003546002546101e8904261054a565b111561020b574260025560015461020790671bc16d674ec80000610563565b6001555b5050565b6000606060035460025442610224919061054a565b1191509250929050565b60015460000361028357610240610320565b60005460405161010090910460ff16815233907faf14ae339d1c11c4bd3934729293fcf6e9b0aff7aedad80683297f0ad18f847f906020015b60405180910390a2565b6001546040516001600160a01b037f0000000000000000000000000000000000000000000000000000000000000000169180156108fc02916000818181858888f193505050501580156102da573d6000803e3d6000fd5b506102e3610320565b60005460405161010090910460ff16815233907fe896cf8a3e0e72907dca4b8c84e8d9ca30f10b4864551b42064d67b9e59822f990602001610279565b3360009081526004602052604090205460ff16156103855760405162461bcd60e51b815260206004820152601960248201527f4164647265737320416c7265616479204c6973746564203a2f0000000000000060448201526064015b60405180910390fd5b60005460ff80821661010090920416106103ed5760405162461bcd60e51b815260206004820152602360248201527f4d6178204e756d626572206f662041646472657373657320416368696576656460448201526204074560eb1b606482015260840161037c565b336000908152600460205260408120805460ff191660019081179091558154610100900460ff16919061041f83610576565b91906101000a81548160ff021916908360ff16021790555050565b60006020828403121561044c57600080fd5b81356001600160a01b038116811461046357600080fd5b9392505050565b6000806020838503121561047d57600080fd5b823567ffffffffffffffff8082111561049557600080fd5b818501915085601f8301126104a957600080fd5b8135818111156104b857600080fd5b8660208285010111156104ca57600080fd5b60209290920196919550909350505050565b821515815260006020604081840152835180604085015260005b81811015610512578581018301518582016060015282016104f6565b506000606082860101526060601f19601f830116850101925050509392505050565b634e487b7160e01b600052601160045260246000fd5b8181038181111561055d5761055d610534565b92915050565b8082018082111561055d5761055d610534565b600060ff821660ff810361058c5761058c610534565b6001019291505056fea2646970667358221220d891d35f0d36bb73100433de0b3955101418e714cafb9dbc2b20394cd344fda764736f6c63430008110033",
  "bytecodeSha1": "9555d2a59d66e64726a5e9fded71ff81ba04c5cf",
  "compiler": {
    "evm_version": "istanbul",
    "optimizer": {
      "enabled": true,
      "runs": 200
    },
    "version": "0.8.17+commit.8df45f5f"
  },
  "contractName": "Whitelist",
  "language": "Solidity",
  "natspec": {
    "kind": "dev",
    "methods": {},
    "version": 1
  },
  "opcodes": "PUSH1 0x80 PUSH1 0x40 MSTORE PUSH1 0x4 CALLDATASIZE LT PUSH2 0x7B JUMPI PUSH1 0x0 CALLDATALOAD PUSH1 0xE0 SHR DUP1 PUSH4 0x65E17C9D GT PUSH2 0x4E JUMPI DUP1 PUSH4 0x65E17C9D EQ PUSH2 0x132 JUMPI DUP1 PUSH4 0x69E15404 EQ PUSH2 0x17E JUMPI DUP1 PUSH4 0x6E04FF0D EQ PUSH2 0x1A2 JUMPI DUP1 PUSH4 0x8E7314D9 EQ PUSH2 0x1D0 JUMPI PUSH1 0x0 DUP1 REVERT JUMPDEST DUP1 PUSH4 0x6C933D8 EQ PUSH2 0x80 JUMPI DUP1 PUSH4 0x31A72188 EQ PUSH2 0xC5 JUMPI DUP1 PUSH4 0x4011D7CD EQ PUSH2 0xF1 JUMPI DUP1 PUSH4 0x4585E33B EQ PUSH2 0x110 JUMPI JUMPDEST PUSH1 0x0 DUP1 REVERT JUMPDEST CALLVALUE DUP1 ISZERO PUSH2 0x8C JUMPI PUSH1 0x0 DUP1 REVERT JUMPDEST POP PUSH2 0xB0 PUSH2 0x9B CALLDATASIZE PUSH1 0x4 PUSH2 0x43A JUMP JUMPDEST PUSH1 0x4 PUSH1 0x20 MSTORE PUSH1 0x0 SWAP1 DUP2 MSTORE PUSH1 0x40 SWAP1 KECCAK256 SLOAD PUSH1 0xFF AND DUP2 JUMP JUMPDEST PUSH1 0x40 MLOAD SWAP1 ISZERO ISZERO DUP2 MSTORE PUSH1 0x20 ADD JUMPDEST PUSH1 0x40 MLOAD DUP1 SWAP2 SUB SWAP1 RETURN JUMPDEST CALLVALUE DUP1 ISZERO PUSH2 0xD1 JUMPI PUSH1 0x0 DUP1 REVERT JUMPDEST POP PUSH1 0x0 SLOAD PUSH2 0xDF SWAP1 PUSH1 0xFF AND DUP2 JUMP JUMPDEST PUSH1 0x40 MLOAD PUSH1 0xFF SWAP1 SWAP2 AND DUP2 MSTORE PUSH1 0x20 ADD PUSH2 0xBC JUMP JUMPDEST CALLVALUE DUP1 ISZERO PUSH2 0xFD JUMPI PUSH1 0x0 DUP1 REVERT JUMPDEST POP PUSH1 0x0 SLOAD PUSH2 0xDF SWAP1 PUSH2 0x100 SWAP1 DIV PUSH1 0xFF AND DUP2 JUMP JUMPDEST CALLVALUE DUP1 ISZERO PUSH2 0x11C JUMPI PUSH1 0x0 DUP1 REVERT JUMPDEST POP PUSH2 0x130 PUSH2 0x12B CALLDATASIZE PUSH1 0x4 PUSH2 0x46A JUMP JUMPDEST PUSH2 0x1D8 JUMP JUMPDEST STOP JUMPDEST CALLVALUE DUP1 ISZERO PUSH2 0x13E JUMPI PUSH1 0x0 DUP1 REVERT JUMPDEST POP PUSH2 0x166 PUSH32 0x0 DUP2 JUMP JUMPDEST PUSH1 0x40 MLOAD PUSH1 0x1 PUSH1 0x1 PUSH1 0xA0 SHL SUB SWAP1 SWAP2 AND DUP2 MSTORE PUSH1 0x20 ADD PUSH2 0xBC JUMP JUMPDEST CALLVALUE DUP1 ISZERO PUSH2 0x18A JUMPI PUSH1 0x0 DUP1 REVERT JUMPDEST POP PUSH2 0x194 PUSH1 0x1 SLOAD DUP2 JUMP JUMPDEST PUSH1 0x40 MLOAD SWAP1 DUP2 MSTORE PUSH1 0x20 ADD PUSH2 0xBC JUMP JUMPDEST CALLVALUE DUP1 ISZERO PUSH2 0x1AE JUMPI PUSH1 0x0 DUP1 REVERT JUMPDEST POP PUSH2 0x1C2 PUSH2 0x1BD CALLDATASIZE PUSH1 0x4 PUSH2 0x46A JUMP JUMPDEST PUSH2 0x20F JUMP JUMPDEST PUSH1 0x40 MLOAD PUSH2 0xBC SWAP3 SWAP2 SWAP1 PUSH2 0x4DC JUMP JUMPDEST PUSH2 0x130 PUSH2 0x22E JUMP JUMPDEST PUSH1 0x3 SLOAD PUSH1 0x2 SLOAD PUSH2 0x1E8 SWAP1 TIMESTAMP PUSH2 0x54A JUMP JUMPDEST GT ISZERO PUSH2 0x20B JUMPI TIMESTAMP PUSH1 0x2 SSTORE PUSH1 0x1 SLOAD PUSH2 0x207 SWAP1 PUSH8 0x1BC16D674EC80000 PUSH2 0x563 JUMP JUMPDEST PUSH1 0x1 SSTORE JUMPDEST POP POP JUMP JUMPDEST PUSH1 0x0 PUSH1 0x60 PUSH1 0x3 SLOAD PUSH1 0x2 SLOAD TIMESTAMP PUSH2 0x224 SWAP2 SWAP1 PUSH2 0x54A JUMP JUMPDEST GT SWAP2 POP SWAP3 POP SWAP3 SWAP1 POP JUMP JUMPDEST PUSH1 0x1 SLOAD PUSH1 0x0 SUB PUSH2 0x283 JUMPI PUSH2 0x240 PUSH2 0x320 JUMP JUMPDEST PUSH1 0x0 SLOAD PUSH1 0x40 MLOAD PUSH2 0x100 SWAP1 SWAP2 DIV PUSH1 0xFF AND DUP2 MSTORE CALLER SWAP1 PUSH32 0xAF14AE339D1C11C4BD3934729293FCF6E9B0AFF7AEDAD80683297F0AD18F847F SWAP1 PUSH1 0x20 ADD JUMPDEST PUSH1 0x40 MLOAD DUP1 SWAP2 SUB SWAP1 LOG2 JUMP JUMPDEST PUSH1 0x1 SLOAD PUSH1 0x40 MLOAD PUSH1 0x1 PUSH1 0x1 PUSH1 0xA0 SHL SUB PUSH32 0x0 AND SWAP2 DUP1 ISZERO PUSH2 0x8FC MUL SWAP2 PUSH1 0x0 DUP2 DUP2 DUP2 DUP6 DUP9 DUP9 CALL SWAP4 POP POP POP POP ISZERO DUP1 ISZERO PUSH2 0x2DA JUMPI RETURNDATASIZE PUSH1 0x0 DUP1 RETURNDATACOPY RETURNDATASIZE PUSH1 0x0 REVERT JUMPDEST POP PUSH2 0x2E3 PUSH2 0x320 JUMP JUMPDEST PUSH1 0x0 SLOAD PUSH1 0x40 MLOAD PUSH2 0x100 SWAP1 SWAP2 DIV PUSH1 0xFF AND DUP2 MSTORE CALLER SWAP1 PUSH32 0xE896CF8A3E0E72907DCA4B8C84E8D9CA30F10B4864551B42064D67B9E59822F9 SWAP1 PUSH1 0x20 ADD PUSH2 0x279 JUMP JUMPDEST CALLER PUSH1 0x0 SWAP1 DUP2 MSTORE PUSH1 0x4 PUSH1 0x20 MSTORE PUSH1 0x40 SWAP1 KECCAK256 SLOAD PUSH1 0xFF AND ISZERO PUSH2 0x385 JUMPI PUSH1 0x40 MLOAD PUSH3 0x461BCD PUSH1 0xE5 SHL DUP2 MSTORE PUSH1 0x20 PUSH1 0x4 DUP3 ADD MSTORE PUSH1 0x19 PUSH1 0x24 DUP3 ADD MSTORE PUSH32 0x4164647265737320416C7265616479204C6973746564203A2F00000000000000 PUSH1 0x44 DUP3 ADD MSTORE PUSH1 0x64 ADD JUMPDEST PUSH1 0x40 MLOAD DUP1 SWAP2 SUB SWAP1 REVERT JUMPDEST PUSH1 0x0 SLOAD PUSH1 0xFF DUP1 DUP3 AND PUSH2 0x100 SWAP1 SWAP3 DIV AND LT PUSH2 0x3ED JUMPI PUSH1 0x40 MLOAD PUSH3 0x461BCD PUSH1 0xE5 SHL DUP2 MSTORE PUSH1 0x20 PUSH1 0x4 DUP3 ADD MSTORE PUSH1 0x23 PUSH1 0x24 DUP3 ADD MSTORE PUSH32 0x4D6178204E756D626572206F6620416464726573736573204163686965766564 PUSH1 0x44 DUP3 ADD MSTORE PUSH3 0x40745 PUSH1 0xEB SHL PUSH1 0x64 DUP3 ADD MSTORE PUSH1 0x84 ADD PUSH2 0x37C JUMP JUMPDEST CALLER PUSH1 0x0 SWAP1 DUP2 MSTORE PUSH1 0x4 PUSH1 0x20 MSTORE PUSH1 0x40 DUP2 KECCAK256 DUP1 SLOAD PUSH1 0xFF NOT AND PUSH1 0x1 SWAP1 DUP2 OR SWAP1 SWAP2 SSTORE DUP2 SLOAD PUSH2 0x100 SWAP1 DIV PUSH1 0xFF AND SWAP2 SWAP1 PUSH2 0x41F DUP4 PUSH2 0x576 JUMP JUMPDEST SWAP2 SWAP1 PUSH2 0x100 EXP DUP2 SLOAD DUP2 PUSH1 0xFF MUL NOT AND SWAP1 DUP4 PUSH1 0xFF AND MUL OR SWAP1 SSTORE POP POP JUMP JUMPDEST PUSH1 0x0 PUSH1 0x20 DUP3 DUP5 SUB SLT ISZERO PUSH2 0x44C JUMPI PUSH1 0x0 DUP1 REVERT JUMPDEST DUP2 CALLDATALOAD PUSH1 0x1 PUSH1 0x1 PUSH1 0xA0 SHL SUB DUP2 AND DUP2 EQ PUSH2 0x463 JUMPI PUSH1 0x0 DUP1 REVERT JUMPDEST SWAP4 SWAP3 POP POP POP JUMP JUMPDEST PUSH1 0x0 DUP1 PUSH1 0x20 DUP4 DUP6 SUB SLT ISZERO PUSH2 0x47D JUMPI PUSH1 0x0 DUP1 REVERT JUMPDEST DUP3 CALLDATALOAD PUSH8 0xFFFFFFFFFFFFFFFF DUP1 DUP3 GT ISZERO PUSH2 0x495 JUMPI PUSH1 0x0 DUP1 REVERT JUMPDEST DUP2 DUP6 ADD SWAP2 POP DUP6 PUSH1 0x1F DUP4 ADD SLT PUSH2 0x4A9 JUMPI PUSH1 0x0 DUP1 REVERT JUMPDEST DUP2 CALLDATALOAD DUP2 DUP2 GT ISZERO PUSH2 0x4B8 JUMPI PUSH1 0x0 DUP1 REVERT JUMPDEST DUP7 PUSH1 0x20 DUP3 DUP6 ADD ADD GT ISZERO PUSH2 0x4CA JUMPI PUSH1 0x0 DUP1 REVERT JUMPDEST PUSH1 0x20 SWAP3 SWAP1 SWAP3 ADD SWAP7 SWAP2 SWAP6 POP SWAP1 SWAP4 POP POP POP POP JUMP JUMPDEST DUP3 ISZERO ISZERO DUP2 MSTORE PUSH1 0x0 PUSH1 0x20 PUSH1 0x40 DUP2 DUP5 ADD MSTORE DUP4 MLOAD DUP1 PUSH1 0x40 DUP6 ADD MSTORE PUSH1 0x0 JUMPDEST DUP2 DUP2 LT ISZERO PUSH2 0x512 JUMPI DUP6 DUP2 ADD DUP4 ADD MLOAD DUP6 DUP3 ADD PUSH1 0x60 ADD MSTORE DUP3 ADD PUSH2 0x4F6 JUMP JUMPDEST POP PUSH1 0x0 PUSH1 0x60 DUP3 DUP7 ADD ADD MSTORE PUSH1 0x60 PUSH1 0x1F NOT PUSH1 0x1F DUP4 ADD AND DUP6 ADD ADD SWAP3 POP POP POP SWAP4 SWAP3 POP POP POP JUMP JUMPDEST PUSH4 0x4E487B71 PUSH1 0xE0 SHL PUSH1 0x0 MSTORE PUSH1 0x11 PUSH1 0x4 MSTORE PUSH1 0x24 PUSH1 0x0 REVERT JUMPDEST DUP2 DUP2 SUB DUP2 DUP2 GT ISZERO PUSH2 0x55D JUMPI PUSH2 0x55D PUSH2 0x534 JUMP JUMPDEST SWAP3 SWAP2 POP POP JUMP JUMPDEST DUP1 DUP3 ADD DUP1 DUP3 GT ISZERO PUSH2 0x55D JUMPI PUSH2 0x55D PUSH2 0x534 JUMP JUMPDEST PUSH1 0x0 PUSH1 0xFF DUP3 AND PUSH1 0xFF DUP2 SUB PUSH2 0x58C JUMPI PUSH2 0x58C PUSH2 0x534 JUMP JUMPDEST PUSH1 0x1 ADD SWAP3 SWAP2 POP POP JUMP INVALID LOG2 PUSH5 0x6970667358 0x22 SLT KECCAK256 0xD8 SWAP2 0xD3 0x5F 0xD CALLDATASIZE 0xBB PUSH20 0x100433DE0B3955101418E714CAFB9DBC2B20394C 0xD3 DIFFICULTY REVERT 0xA7 PUSH5 0x736F6C6343 STOP ADDMOD GT STOP CALLER ",
  "sha1": "73e8d20f11238f61cee6b86695e2b0709a93aeda",
  "source": "//SPDX-License-Identifier: MIT\npragma solidity ^0.8.0;\n\n// imports\nimport \"@chainlink/contracts/src/v0.8/KeeperCompatible.sol\";\n\ncontract Whitelist is KeeperCompatibleInterface{\n    // Address to receive payments after time or account limit exceeds\n    address payable public immutable feeAccount;\n\n    // Max number of addresses\n    uint8 public maxWhitelistedAddresses;\n\n    // Counter of actual number of listed addresses\n    uint8 public numAddressesWhitelisted;\n\n    // Amount fee to enter whitelist\n    uint256 public feeAmount;\n    // variable to store deploy date\n    uint lastTimeStamp;\n    uint interval;\n\n    // Mapping to keep track of saved addresses\n    mapping(address => bool) public whitelistedAddresses;\n\n    // event to notify a new address is submitted\n    event Added(address indexed _user, uint8 _numAddressesWhitelisted);\n    event PaidAdded(address indexed _user, uint8 _numAddressesWhitelisted);\n\n    //  Constructor, set max number of adrs\n    constructor(uint8 _maxWhitelistedAddresses, uint256 _feeAmount, uint _interval){\n        maxWhitelistedAddresses = _maxWhitelistedAddresses;\n        feeAmount=_feeAmount;\n        lastTimeStamp=block.timestamp;\n        feeAccount=payable(msg.sender);\n        interval=_interval;\n    }\n\n    // function to add address free\n    function _AddAddressToWhitelist() internal{\n        // require address is not already listed\n        require(!whitelistedAddresses[msg.sender], \"Address Already Listed :/\");\n\n        // require max number of adrs not achieved\n        require(numAddressesWhitelisted < maxWhitelistedAddresses, \"Max Number of Addresses Achieved :(\");\n\n        // add address to mapping\n        whitelistedAddresses[msg.sender] = true;\n\n        // update counter\n        numAddressesWhitelisted++;\n    }\n\n    // Function to add address\n    function addAddressToWhitelist() public payable{\n        if(feeAmount == 0){\n            _AddAddressToWhitelist();\n            // emit event\n            emit Added(msg.sender, numAddressesWhitelisted);\n        }else{\n            feeAccount.transfer(feeAmount);\n            _AddAddressToWhitelist();\n            // emit event\n            emit PaidAdded(msg.sender, numAddressesWhitelisted);\n        }\n    }\n\n    function checkUpkeep(bytes calldata /* checkData */) external override returns (bool upkeepNeeded, bytes memory /* performData */) {\n        // check if enough time have passed to update price\n        upkeepNeeded = (block.timestamp - lastTimeStamp) > interval;\n    }\n    \n    function performUpkeep(bytes calldata /* performData */) external override {\n        //We highly recommend revalidating the upkeep in the performUpkeep function\n        if ((block.timestamp - lastTimeStamp) > interval ) {\n            lastTimeStamp = block.timestamp;\n            // increase fee price to register\n            feeAmount = feeAmount + (2 ether);\n        }\n    }\n}",
  "sourcePath": "contracts/Whitelist.sol",
  "type": "contract"
}