{
  "abi": [
    {
      "inputs": [
        {
          "internalType": "uint256",
          "name": "_maxWhitelistedAddresses",
          "type": "uint256"
        },
        {
          "internalType": "uint256",
          "name": "_feeAmount",
          "type": "uint256"
        },
        {
          "internalType": "uint256",
          "name": "_interval",
          "type": "uint256"
        }
      ],
      "stateMutability": "nonpayable",
      "type": "constructor"
    },
    {
      "anonymous": false,
      "inputs": [
        {
          "indexed": true,
          "internalType": "address",
          "name": "_user",
          "type": "address"
        },
        {
          "indexed": false,
          "internalType": "uint256",
          "name": "_numAddressesWhitelisted",
          "type": "uint256"
        }
      ],
      "name": "Added",
      "type": "event"
    },
    {
      "anonymous": false,
      "inputs": [
        {
          "indexed": true,
          "internalType": "address",
          "name": "_user",
          "type": "address"
        },
        {
          "indexed": false,
          "internalType": "uint256",
          "name": "_numAddressesWhitelisted",
          "type": "uint256"
        }
      ],
      "name": "PaidAdded",
      "type": "event"
    },
    {
      "inputs": [],
      "name": "addAddressToWhitelist",
      "outputs": [],
      "stateMutability": "payable",
      "type": "function"
    },
    {
      "inputs": [
        {
          "internalType": "bytes",
          "name": "",
          "type": "bytes"
        }
      ],
      "name": "checkUpkeep",
      "outputs": [
        {
          "internalType": "bool",
          "name": "upkeepNeeded",
          "type": "bool"
        },
        {
          "internalType": "bytes",
          "name": "",
          "type": "bytes"
        }
      ],
      "stateMutability": "nonpayable",
      "type": "function"
    },
    {
      "inputs": [],
      "name": "feeAccount",
      "outputs": [
        {
          "internalType": "address payable",
          "name": "",
          "type": "address"
        }
      ],
      "stateMutability": "view",
      "type": "function"
    },
    {
      "inputs": [],
      "name": "feeAmount",
      "outputs": [
        {
          "internalType": "uint256",
          "name": "",
          "type": "uint256"
        }
      ],
      "stateMutability": "view",
      "type": "function"
    },
    {
      "inputs": [],
      "name": "maxWhitelistedAddresses",
      "outputs": [
        {
          "internalType": "uint256",
          "name": "",
          "type": "uint256"
        }
      ],
      "stateMutability": "view",
      "type": "function"
    },
    {
      "inputs": [],
      "name": "numAddressesWhitelisted",
      "outputs": [
        {
          "internalType": "uint256",
          "name": "",
          "type": "uint256"
        }
      ],
      "stateMutability": "view",
      "type": "function"
    },
    {
      "inputs": [
        {
          "internalType": "bytes",
          "name": "",
          "type": "bytes"
        }
      ],
      "name": "performUpkeep",
      "outputs": [],
      "stateMutability": "nonpayable",
      "type": "function"
    },
    {
      "inputs": [
        {
          "internalType": "address",
          "name": "",
          "type": "address"
        }
      ],
      "name": "whitelistedAddresses",
      "outputs": [
        {
          "internalType": "bool",
          "name": "",
          "type": "bool"
        }
      ],
      "stateMutability": "view",
      "type": "function"
    }
  ],
  "bytecode": "60a060405234801561001057600080fd5b5060405161060838038061060883398101604081905261002f91610048565b6000929092556002554260035533608052600455610076565b60008060006060848603121561005d57600080fd5b8351925060208401519150604084015190509250925092565b60805161057061009860003960008181610133015261026c01526105706000f3fe60806040526004361061007b5760003560e01c806365e17c9d1161004e57806365e17c9d1461012157806369e154041461016d5780636e04ff0d146101835780638e7314d9146101b157600080fd5b806306c933d81461008057806331a72188146100c55780634011d7cd146100e95780634585e33b146100ff575b600080fd5b34801561008c57600080fd5b506100b061009b3660046103e5565b60056020526000908152604090205460ff1681565b60405190151581526020015b60405180910390f35b3480156100d157600080fd5b506100db60005481565b6040519081526020016100bc565b3480156100f557600080fd5b506100db60015481565b34801561010b57600080fd5b5061011f61011a366004610415565b6101b9565b005b34801561012d57600080fd5b506101557f000000000000000000000000000000000000000000000000000000000000000081565b6040516001600160a01b0390911681526020016100bc565b34801561017957600080fd5b506100db60025481565b34801561018f57600080fd5b506101a361019e366004610415565b6101f0565b6040516100bc929190610487565b61011f61020f565b6004546003546101c990426104f5565b11156101ec57426003556002546101e890671bc16d674ec8000061050e565b6002555b5050565b600060606004546003544261020591906104f5565b1191509250929050565b60025460000361025c576102216102f1565b60015460405190815233907f446e00ad56f9b887844f390c87a128507b991ea0499375f13ecb115288c2df7d906020015b60405180910390a2565b6002546040516001600160a01b037f0000000000000000000000000000000000000000000000000000000000000000169180156108fc02916000818181858888f193505050501580156102b3573d6000803e3d6000fd5b506102bc6102f1565b60015460405190815233907f2fa305869f2dd2cd92be4e2c350ba91aa98743277a62daee658fe8788cf0980790602001610252565b3360009081526005602052604090205460ff16156103565760405162461bcd60e51b815260206004820152601960248201527f4164647265737320416c7265616479204c6973746564203a2f0000000000000060448201526064015b60405180910390fd5b600054600154106103b55760405162461bcd60e51b815260206004820152602360248201527f4d6178204e756d626572206f662041646472657373657320416368696576656460448201526204074560eb1b606482015260840161034d565b336000908152600560205260408120805460ff191660019081179091558054916103de83610521565b9190505550565b6000602082840312156103f757600080fd5b81356001600160a01b038116811461040e57600080fd5b9392505050565b6000806020838503121561042857600080fd5b823567ffffffffffffffff8082111561044057600080fd5b818501915085601f83011261045457600080fd5b81358181111561046357600080fd5b86602082850101111561047557600080fd5b60209290920196919550909350505050565b821515815260006020604081840152835180604085015260005b818110156104bd578581018301518582016060015282016104a1565b506000606082860101526060601f19601f830116850101925050509392505050565b634e487b7160e01b600052601160045260246000fd5b81810381811115610508576105086104df565b92915050565b80820180821115610508576105086104df565b600060018201610533576105336104df565b506001019056fea2646970667358221220c9f384eeadcd1dbc1316b0a99b8f9835c2f84d1fe1f35dc1dd2529afd03d3ea364736f6c63430008110033",
  "bytecodeSha1": "d95490054a548d5d9772ecf57ab9807fa12433c7",
  "compiler": {
    "evm_version": "istanbul",
    "optimizer": {
      "enabled": true,
      "runs": 200
    },
    "version": "0.8.17+commit.8df45f5f"
  },
  "contractName": "Whitelist",
  "language": "Solidity",
  "natspec": {
    "kind": "dev",
    "methods": {},
    "version": 1
  },
  "opcodes": "PUSH1 0x80 PUSH1 0x40 MSTORE PUSH1 0x4 CALLDATASIZE LT PUSH2 0x7B JUMPI PUSH1 0x0 CALLDATALOAD PUSH1 0xE0 SHR DUP1 PUSH4 0x65E17C9D GT PUSH2 0x4E JUMPI DUP1 PUSH4 0x65E17C9D EQ PUSH2 0x121 JUMPI DUP1 PUSH4 0x69E15404 EQ PUSH2 0x16D JUMPI DUP1 PUSH4 0x6E04FF0D EQ PUSH2 0x183 JUMPI DUP1 PUSH4 0x8E7314D9 EQ PUSH2 0x1B1 JUMPI PUSH1 0x0 DUP1 REVERT JUMPDEST DUP1 PUSH4 0x6C933D8 EQ PUSH2 0x80 JUMPI DUP1 PUSH4 0x31A72188 EQ PUSH2 0xC5 JUMPI DUP1 PUSH4 0x4011D7CD EQ PUSH2 0xE9 JUMPI DUP1 PUSH4 0x4585E33B EQ PUSH2 0xFF JUMPI JUMPDEST PUSH1 0x0 DUP1 REVERT JUMPDEST CALLVALUE DUP1 ISZERO PUSH2 0x8C JUMPI PUSH1 0x0 DUP1 REVERT JUMPDEST POP PUSH2 0xB0 PUSH2 0x9B CALLDATASIZE PUSH1 0x4 PUSH2 0x3E5 JUMP JUMPDEST PUSH1 0x5 PUSH1 0x20 MSTORE PUSH1 0x0 SWAP1 DUP2 MSTORE PUSH1 0x40 SWAP1 KECCAK256 SLOAD PUSH1 0xFF AND DUP2 JUMP JUMPDEST PUSH1 0x40 MLOAD SWAP1 ISZERO ISZERO DUP2 MSTORE PUSH1 0x20 ADD JUMPDEST PUSH1 0x40 MLOAD DUP1 SWAP2 SUB SWAP1 RETURN JUMPDEST CALLVALUE DUP1 ISZERO PUSH2 0xD1 JUMPI PUSH1 0x0 DUP1 REVERT JUMPDEST POP PUSH2 0xDB PUSH1 0x0 SLOAD DUP2 JUMP JUMPDEST PUSH1 0x40 MLOAD SWAP1 DUP2 MSTORE PUSH1 0x20 ADD PUSH2 0xBC JUMP JUMPDEST CALLVALUE DUP1 ISZERO PUSH2 0xF5 JUMPI PUSH1 0x0 DUP1 REVERT JUMPDEST POP PUSH2 0xDB PUSH1 0x1 SLOAD DUP2 JUMP JUMPDEST CALLVALUE DUP1 ISZERO PUSH2 0x10B JUMPI PUSH1 0x0 DUP1 REVERT JUMPDEST POP PUSH2 0x11F PUSH2 0x11A CALLDATASIZE PUSH1 0x4 PUSH2 0x415 JUMP JUMPDEST PUSH2 0x1B9 JUMP JUMPDEST STOP JUMPDEST CALLVALUE DUP1 ISZERO PUSH2 0x12D JUMPI PUSH1 0x0 DUP1 REVERT JUMPDEST POP PUSH2 0x155 PUSH32 0x0 DUP2 JUMP JUMPDEST PUSH1 0x40 MLOAD PUSH1 0x1 PUSH1 0x1 PUSH1 0xA0 SHL SUB SWAP1 SWAP2 AND DUP2 MSTORE PUSH1 0x20 ADD PUSH2 0xBC JUMP JUMPDEST CALLVALUE DUP1 ISZERO PUSH2 0x179 JUMPI PUSH1 0x0 DUP1 REVERT JUMPDEST POP PUSH2 0xDB PUSH1 0x2 SLOAD DUP2 JUMP JUMPDEST CALLVALUE DUP1 ISZERO PUSH2 0x18F JUMPI PUSH1 0x0 DUP1 REVERT JUMPDEST POP PUSH2 0x1A3 PUSH2 0x19E CALLDATASIZE PUSH1 0x4 PUSH2 0x415 JUMP JUMPDEST PUSH2 0x1F0 JUMP JUMPDEST PUSH1 0x40 MLOAD PUSH2 0xBC SWAP3 SWAP2 SWAP1 PUSH2 0x487 JUMP JUMPDEST PUSH2 0x11F PUSH2 0x20F JUMP JUMPDEST PUSH1 0x4 SLOAD PUSH1 0x3 SLOAD PUSH2 0x1C9 SWAP1 TIMESTAMP PUSH2 0x4F5 JUMP JUMPDEST GT ISZERO PUSH2 0x1EC JUMPI TIMESTAMP PUSH1 0x3 SSTORE PUSH1 0x2 SLOAD PUSH2 0x1E8 SWAP1 PUSH8 0x1BC16D674EC80000 PUSH2 0x50E JUMP JUMPDEST PUSH1 0x2 SSTORE JUMPDEST POP POP JUMP JUMPDEST PUSH1 0x0 PUSH1 0x60 PUSH1 0x4 SLOAD PUSH1 0x3 SLOAD TIMESTAMP PUSH2 0x205 SWAP2 SWAP1 PUSH2 0x4F5 JUMP JUMPDEST GT SWAP2 POP SWAP3 POP SWAP3 SWAP1 POP JUMP JUMPDEST PUSH1 0x2 SLOAD PUSH1 0x0 SUB PUSH2 0x25C JUMPI PUSH2 0x221 PUSH2 0x2F1 JUMP JUMPDEST PUSH1 0x1 SLOAD PUSH1 0x40 MLOAD SWAP1 DUP2 MSTORE CALLER SWAP1 PUSH32 0x446E00AD56F9B887844F390C87A128507B991EA0499375F13ECB115288C2DF7D SWAP1 PUSH1 0x20 ADD JUMPDEST PUSH1 0x40 MLOAD DUP1 SWAP2 SUB SWAP1 LOG2 JUMP JUMPDEST PUSH1 0x2 SLOAD PUSH1 0x40 MLOAD PUSH1 0x1 PUSH1 0x1 PUSH1 0xA0 SHL SUB PUSH32 0x0 AND SWAP2 DUP1 ISZERO PUSH2 0x8FC MUL SWAP2 PUSH1 0x0 DUP2 DUP2 DUP2 DUP6 DUP9 DUP9 CALL SWAP4 POP POP POP POP ISZERO DUP1 ISZERO PUSH2 0x2B3 JUMPI RETURNDATASIZE PUSH1 0x0 DUP1 RETURNDATACOPY RETURNDATASIZE PUSH1 0x0 REVERT JUMPDEST POP PUSH2 0x2BC PUSH2 0x2F1 JUMP JUMPDEST PUSH1 0x1 SLOAD PUSH1 0x40 MLOAD SWAP1 DUP2 MSTORE CALLER SWAP1 PUSH32 0x2FA305869F2DD2CD92BE4E2C350BA91AA98743277A62DAEE658FE8788CF09807 SWAP1 PUSH1 0x20 ADD PUSH2 0x252 JUMP JUMPDEST CALLER PUSH1 0x0 SWAP1 DUP2 MSTORE PUSH1 0x5 PUSH1 0x20 MSTORE PUSH1 0x40 SWAP1 KECCAK256 SLOAD PUSH1 0xFF AND ISZERO PUSH2 0x356 JUMPI PUSH1 0x40 MLOAD PUSH3 0x461BCD PUSH1 0xE5 SHL DUP2 MSTORE PUSH1 0x20 PUSH1 0x4 DUP3 ADD MSTORE PUSH1 0x19 PUSH1 0x24 DUP3 ADD MSTORE PUSH32 0x4164647265737320416C7265616479204C6973746564203A2F00000000000000 PUSH1 0x44 DUP3 ADD MSTORE PUSH1 0x64 ADD JUMPDEST PUSH1 0x40 MLOAD DUP1 SWAP2 SUB SWAP1 REVERT JUMPDEST PUSH1 0x0 SLOAD PUSH1 0x1 SLOAD LT PUSH2 0x3B5 JUMPI PUSH1 0x40 MLOAD PUSH3 0x461BCD PUSH1 0xE5 SHL DUP2 MSTORE PUSH1 0x20 PUSH1 0x4 DUP3 ADD MSTORE PUSH1 0x23 PUSH1 0x24 DUP3 ADD MSTORE PUSH32 0x4D6178204E756D626572206F6620416464726573736573204163686965766564 PUSH1 0x44 DUP3 ADD MSTORE PUSH3 0x40745 PUSH1 0xEB SHL PUSH1 0x64 DUP3 ADD MSTORE PUSH1 0x84 ADD PUSH2 0x34D JUMP JUMPDEST CALLER PUSH1 0x0 SWAP1 DUP2 MSTORE PUSH1 0x5 PUSH1 0x20 MSTORE PUSH1 0x40 DUP2 KECCAK256 DUP1 SLOAD PUSH1 0xFF NOT AND PUSH1 0x1 SWAP1 DUP2 OR SWAP1 SWAP2 SSTORE DUP1 SLOAD SWAP2 PUSH2 0x3DE DUP4 PUSH2 0x521 JUMP JUMPDEST SWAP2 SWAP1 POP SSTORE POP JUMP JUMPDEST PUSH1 0x0 PUSH1 0x20 DUP3 DUP5 SUB SLT ISZERO PUSH2 0x3F7 JUMPI PUSH1 0x0 DUP1 REVERT JUMPDEST DUP2 CALLDATALOAD PUSH1 0x1 PUSH1 0x1 PUSH1 0xA0 SHL SUB DUP2 AND DUP2 EQ PUSH2 0x40E JUMPI PUSH1 0x0 DUP1 REVERT JUMPDEST SWAP4 SWAP3 POP POP POP JUMP JUMPDEST PUSH1 0x0 DUP1 PUSH1 0x20 DUP4 DUP6 SUB SLT ISZERO PUSH2 0x428 JUMPI PUSH1 0x0 DUP1 REVERT JUMPDEST DUP3 CALLDATALOAD PUSH8 0xFFFFFFFFFFFFFFFF DUP1 DUP3 GT ISZERO PUSH2 0x440 JUMPI PUSH1 0x0 DUP1 REVERT JUMPDEST DUP2 DUP6 ADD SWAP2 POP DUP6 PUSH1 0x1F DUP4 ADD SLT PUSH2 0x454 JUMPI PUSH1 0x0 DUP1 REVERT JUMPDEST DUP2 CALLDATALOAD DUP2 DUP2 GT ISZERO PUSH2 0x463 JUMPI PUSH1 0x0 DUP1 REVERT JUMPDEST DUP7 PUSH1 0x20 DUP3 DUP6 ADD ADD GT ISZERO PUSH2 0x475 JUMPI PUSH1 0x0 DUP1 REVERT JUMPDEST PUSH1 0x20 SWAP3 SWAP1 SWAP3 ADD SWAP7 SWAP2 SWAP6 POP SWAP1 SWAP4 POP POP POP POP JUMP JUMPDEST DUP3 ISZERO ISZERO DUP2 MSTORE PUSH1 0x0 PUSH1 0x20 PUSH1 0x40 DUP2 DUP5 ADD MSTORE DUP4 MLOAD DUP1 PUSH1 0x40 DUP6 ADD MSTORE PUSH1 0x0 JUMPDEST DUP2 DUP2 LT ISZERO PUSH2 0x4BD JUMPI DUP6 DUP2 ADD DUP4 ADD MLOAD DUP6 DUP3 ADD PUSH1 0x60 ADD MSTORE DUP3 ADD PUSH2 0x4A1 JUMP JUMPDEST POP PUSH1 0x0 PUSH1 0x60 DUP3 DUP7 ADD ADD MSTORE PUSH1 0x60 PUSH1 0x1F NOT PUSH1 0x1F DUP4 ADD AND DUP6 ADD ADD SWAP3 POP POP POP SWAP4 SWAP3 POP POP POP JUMP JUMPDEST PUSH4 0x4E487B71 PUSH1 0xE0 SHL PUSH1 0x0 MSTORE PUSH1 0x11 PUSH1 0x4 MSTORE PUSH1 0x24 PUSH1 0x0 REVERT JUMPDEST DUP2 DUP2 SUB DUP2 DUP2 GT ISZERO PUSH2 0x508 JUMPI PUSH2 0x508 PUSH2 0x4DF JUMP JUMPDEST SWAP3 SWAP2 POP POP JUMP JUMPDEST DUP1 DUP3 ADD DUP1 DUP3 GT ISZERO PUSH2 0x508 JUMPI PUSH2 0x508 PUSH2 0x4DF JUMP JUMPDEST PUSH1 0x0 PUSH1 0x1 DUP3 ADD PUSH2 0x533 JUMPI PUSH2 0x533 PUSH2 0x4DF JUMP JUMPDEST POP PUSH1 0x1 ADD SWAP1 JUMP INVALID LOG2 PUSH5 0x6970667358 0x22 SLT KECCAK256 0xC9 RETURN DUP5 0xEE 0xAD 0xCD SAR 0xBC SGT AND 0xB0 0xA9 SWAP12 DUP16 SWAP9 CALLDATALOAD 0xC2 0xF8 0x4D 0x1F 0xE1 RETURN 0x5D 0xC1 0xDD 0x25 0x29 0xAF 0xD0 RETURNDATASIZE RETURNDATACOPY LOG3 PUSH5 0x736F6C6343 STOP ADDMOD GT STOP CALLER ",
  "sha1": "4547186bcf2c960ed3884d48e841723efd88d3a0",
  "source": "//SPDX-License-Identifier: MIT\npragma solidity ^0.8.0;\n\n// imports\nimport \"@chainlink/contracts/src/v0.8/KeeperCompatible.sol\";\n\ncontract Whitelist is KeeperCompatibleInterface{\n    // Address to receive payments after time or account limit exceeds\n    address payable public immutable feeAccount;\n\n    // Max number of addresses\n    uint256 public maxWhitelistedAddresses;\n\n    // Counter of actual number of listed addresses\n    uint256 public numAddressesWhitelisted;\n\n    // Amount fee to enter whitelist\n    uint256 public feeAmount;\n    \n    // variable to store deploy date\n    uint lastTimeStamp;\n    uint interval;\n\n    // Mapping to keep track of saved addresses\n    mapping(address => bool) public whitelistedAddresses;\n\n    // event to notify a new address is submitted\n    event Added(address indexed _user, uint256 _numAddressesWhitelisted);\n    event PaidAdded(address indexed _user, uint256 _numAddressesWhitelisted);\n\n    //  Constructor, set max number of adrs\n    constructor(uint256 _maxWhitelistedAddresses, uint256 _feeAmount, uint _interval){\n        maxWhitelistedAddresses = _maxWhitelistedAddresses;\n        feeAmount=_feeAmount;\n        lastTimeStamp=block.timestamp;\n        feeAccount=payable(msg.sender);\n        interval=_interval;\n    }\n\n    // function to add address free\n    function _AddAddressToWhitelist() internal{\n        // require address is not already listed\n        require(!whitelistedAddresses[msg.sender], \"Address Already Listed :/\");\n\n        // require max number of adrs not achieved\n        require(numAddressesWhitelisted < maxWhitelistedAddresses, \"Max Number of Addresses Achieved :(\");\n\n        // add address to mapping\n        whitelistedAddresses[msg.sender] = true;\n\n        // update counter\n        numAddressesWhitelisted++;\n    }\n\n    // Function to add address\n    function addAddressToWhitelist() public payable{\n        if(feeAmount == 0){\n            _AddAddressToWhitelist();\n            // emit event\n            emit Added(msg.sender, numAddressesWhitelisted);\n        }else{\n            feeAccount.transfer(feeAmount);\n            _AddAddressToWhitelist();\n            // emit event\n            emit PaidAdded(msg.sender, numAddressesWhitelisted);\n        }\n    }\n\n    function checkUpkeep(bytes calldata /* checkData */) external override returns (bool upkeepNeeded, bytes memory /* performData */) {\n        // check if enough time have passed to update price\n        upkeepNeeded = (block.timestamp - lastTimeStamp) > interval;\n    }\n    \n    function performUpkeep(bytes calldata /* performData */) external override {\n        //We highly recommend revalidating the upkeep in the performUpkeep function\n        if ((block.timestamp - lastTimeStamp) > interval ) {\n            lastTimeStamp = block.timestamp;\n            // increase fee price to register\n            feeAmount = feeAmount + (2 ether);\n        }\n    }\n}",
  "sourcePath": "contracts/Whitelist.sol",
  "type": "contract"
}